{
  "_format": "hh-sol-artifact-1",
  "contractName": "ERC20Token",
  "sourceName": "contracts/ERC20Token.sol",
  "abi": [
    {
      "inputs": [
        {
          "internalType": "uint256",
          "name": "initialSupply",
          "type": "uint256"
        }
      ],
      "stateMutability": "nonpayable",
      "type": "constructor"
    },
    {
      "anonymous": false,
      "inputs": [
        {
          "indexed": true,
          "internalType": "address",
          "name": "owner",
          "type": "address"
        },
        {
          "indexed": true,
          "internalType": "address",
          "name": "spender",
          "type": "address"
        },
        {
          "indexed": false,
          "internalType": "uint256",
          "name": "value",
          "type": "uint256"
        }
      ],
      "name": "Approval",
      "type": "event"
    },
    {
      "anonymous": false,
      "inputs": [
        {
          "indexed": true,
          "internalType": "bytes32",
          "name": "role",
          "type": "bytes32"
        },
        {
          "indexed": true,
          "internalType": "bytes32",
          "name": "previousAdminRole",
          "type": "bytes32"
        },
        {
          "indexed": true,
          "internalType": "bytes32",
          "name": "newAdminRole",
          "type": "bytes32"
        }
      ],
      "name": "RoleAdminChanged",
      "type": "event"
    },
    {
      "anonymous": false,
      "inputs": [
        {
          "indexed": true,
          "internalType": "bytes32",
          "name": "role",
          "type": "bytes32"
        },
        {
          "indexed": true,
          "internalType": "address",
          "name": "account",
          "type": "address"
        },
        {
          "indexed": true,
          "internalType": "address",
          "name": "sender",
          "type": "address"
        }
      ],
      "name": "RoleGranted",
      "type": "event"
    },
    {
      "anonymous": false,
      "inputs": [
        {
          "indexed": true,
          "internalType": "bytes32",
          "name": "role",
          "type": "bytes32"
        },
        {
          "indexed": true,
          "internalType": "address",
          "name": "account",
          "type": "address"
        },
        {
          "indexed": true,
          "internalType": "address",
          "name": "sender",
          "type": "address"
        }
      ],
      "name": "RoleRevoked",
      "type": "event"
    },
    {
      "anonymous": false,
      "inputs": [
        {
          "indexed": true,
          "internalType": "address",
          "name": "from",
          "type": "address"
        },
        {
          "indexed": true,
          "internalType": "address",
          "name": "to",
          "type": "address"
        },
        {
          "indexed": false,
          "internalType": "uint256",
          "name": "value",
          "type": "uint256"
        }
      ],
      "name": "Transfer",
      "type": "event"
    },
    {
      "inputs": [],
      "name": "DEFAULT_ADMIN_ROLE",
      "outputs": [
        {
          "internalType": "bytes32",
          "name": "",
          "type": "bytes32"
        }
      ],
      "stateMutability": "view",
      "type": "function"
    },
    {
      "inputs": [],
      "name": "MINTER_ROLE",
      "outputs": [
        {
          "internalType": "bytes32",
          "name": "",
          "type": "bytes32"
        }
      ],
      "stateMutability": "view",
      "type": "function"
    },
    {
      "inputs": [
        {
          "internalType": "address",
          "name": "owner",
          "type": "address"
        },
        {
          "internalType": "address",
          "name": "spender",
          "type": "address"
        }
      ],
      "name": "allowance",
      "outputs": [
        {
          "internalType": "uint256",
          "name": "",
          "type": "uint256"
        }
      ],
      "stateMutability": "view",
      "type": "function"
    },
    {
      "inputs": [
        {
          "internalType": "address",
          "name": "spender",
          "type": "address"
        },
        {
          "internalType": "uint256",
          "name": "amount",
          "type": "uint256"
        }
      ],
      "name": "approve",
      "outputs": [
        {
          "internalType": "bool",
          "name": "",
          "type": "bool"
        }
      ],
      "stateMutability": "nonpayable",
      "type": "function"
    },
    {
      "inputs": [
        {
          "internalType": "address",
          "name": "account",
          "type": "address"
        }
      ],
      "name": "balanceOf",
      "outputs": [
        {
          "internalType": "uint256",
          "name": "",
          "type": "uint256"
        }
      ],
      "stateMutability": "view",
      "type": "function"
    },
    {
      "inputs": [
        {
          "internalType": "uint256",
          "name": "amount",
          "type": "uint256"
        }
      ],
      "name": "burn",
      "outputs": [],
      "stateMutability": "nonpayable",
      "type": "function"
    },
    {
      "inputs": [
        {
          "internalType": "address",
          "name": "account",
          "type": "address"
        },
        {
          "internalType": "uint256",
          "name": "amount",
          "type": "uint256"
        }
      ],
      "name": "burnFrom",
      "outputs": [],
      "stateMutability": "nonpayable",
      "type": "function"
    },
    {
      "inputs": [],
      "name": "decimals",
      "outputs": [
        {
          "internalType": "uint8",
          "name": "",
          "type": "uint8"
        }
      ],
      "stateMutability": "view",
      "type": "function"
    },
    {
      "inputs": [
        {
          "internalType": "address",
          "name": "spender",
          "type": "address"
        },
        {
          "internalType": "uint256",
          "name": "subtractedValue",
          "type": "uint256"
        }
      ],
      "name": "decreaseAllowance",
      "outputs": [
        {
          "internalType": "bool",
          "name": "",
          "type": "bool"
        }
      ],
      "stateMutability": "nonpayable",
      "type": "function"
    },
    {
      "inputs": [
        {
          "internalType": "bytes32",
          "name": "role",
          "type": "bytes32"
        }
      ],
      "name": "getRoleAdmin",
      "outputs": [
        {
          "internalType": "bytes32",
          "name": "",
          "type": "bytes32"
        }
      ],
      "stateMutability": "view",
      "type": "function"
    },
    {
      "inputs": [
        {
          "internalType": "bytes32",
          "name": "role",
          "type": "bytes32"
        },
        {
          "internalType": "uint256",
          "name": "index",
          "type": "uint256"
        }
      ],
      "name": "getRoleMember",
      "outputs": [
        {
          "internalType": "address",
          "name": "",
          "type": "address"
        }
      ],
      "stateMutability": "view",
      "type": "function"
    },
    {
      "inputs": [
        {
          "internalType": "bytes32",
          "name": "role",
          "type": "bytes32"
        }
      ],
      "name": "getRoleMemberCount",
      "outputs": [
        {
          "internalType": "uint256",
          "name": "",
          "type": "uint256"
        }
      ],
      "stateMutability": "view",
      "type": "function"
    },
    {
      "inputs": [
        {
          "internalType": "bytes32",
          "name": "role",
          "type": "bytes32"
        },
        {
          "internalType": "address",
          "name": "account",
          "type": "address"
        }
      ],
      "name": "grantRole",
      "outputs": [],
      "stateMutability": "nonpayable",
      "type": "function"
    },
    {
      "inputs": [
        {
          "internalType": "bytes32",
          "name": "role",
          "type": "bytes32"
        },
        {
          "internalType": "address",
          "name": "account",
          "type": "address"
        }
      ],
      "name": "hasRole",
      "outputs": [
        {
          "internalType": "bool",
          "name": "",
          "type": "bool"
        }
      ],
      "stateMutability": "view",
      "type": "function"
    },
    {
      "inputs": [
        {
          "internalType": "address",
          "name": "spender",
          "type": "address"
        },
        {
          "internalType": "uint256",
          "name": "addedValue",
          "type": "uint256"
        }
      ],
      "name": "increaseAllowance",
      "outputs": [
        {
          "internalType": "bool",
          "name": "",
          "type": "bool"
        }
      ],
      "stateMutability": "nonpayable",
      "type": "function"
    },
    {
      "inputs": [
        {
          "internalType": "address",
          "name": "minter",
          "type": "address"
        }
      ],
      "name": "isMinter",
      "outputs": [
        {
          "internalType": "bool",
          "name": "",
          "type": "bool"
        }
      ],
      "stateMutability": "view",
      "type": "function"
    },
    {
      "inputs": [
        {
          "internalType": "address",
          "name": "to",
          "type": "address"
        },
        {
          "internalType": "uint256",
          "name": "amount",
          "type": "uint256"
        }
      ],
      "name": "mint",
      "outputs": [],
      "stateMutability": "nonpayable",
      "type": "function"
    },
    {
      "inputs": [],
      "name": "name",
      "outputs": [
        {
          "internalType": "string",
          "name": "",
          "type": "string"
        }
      ],
      "stateMutability": "view",
      "type": "function"
    },
    {
      "inputs": [
        {
          "internalType": "bytes32",
          "name": "role",
          "type": "bytes32"
        },
        {
          "internalType": "address",
          "name": "account",
          "type": "address"
        }
      ],
      "name": "renounceRole",
      "outputs": [],
      "stateMutability": "nonpayable",
      "type": "function"
    },
    {
      "inputs": [
        {
          "internalType": "bytes32",
          "name": "role",
          "type": "bytes32"
        },
        {
          "internalType": "address",
          "name": "account",
          "type": "address"
        }
      ],
      "name": "revokeRole",
      "outputs": [],
      "stateMutability": "nonpayable",
      "type": "function"
    },
    {
      "inputs": [
        {
          "internalType": "address",
          "name": "minter",
          "type": "address"
        },
        {
          "internalType": "bool",
          "name": "flag",
          "type": "bool"
        }
      ],
      "name": "setMinter",
      "outputs": [],
      "stateMutability": "nonpayable",
      "type": "function"
    },
    {
      "inputs": [
        {
          "internalType": "bytes4",
          "name": "interfaceId",
          "type": "bytes4"
        }
      ],
      "name": "supportsInterface",
      "outputs": [
        {
          "internalType": "bool",
          "name": "",
          "type": "bool"
        }
      ],
      "stateMutability": "view",
      "type": "function"
    },
    {
      "inputs": [],
      "name": "symbol",
      "outputs": [
        {
          "internalType": "string",
          "name": "",
          "type": "string"
        }
      ],
      "stateMutability": "view",
      "type": "function"
    },
    {
      "inputs": [],
      "name": "totalSupply",
      "outputs": [
        {
          "internalType": "uint256",
          "name": "",
          "type": "uint256"
        }
      ],
      "stateMutability": "view",
      "type": "function"
    },
    {
      "inputs": [
        {
          "internalType": "address",
          "name": "to",
          "type": "address"
        },
        {
          "internalType": "uint256",
          "name": "amount",
          "type": "uint256"
        }
      ],
      "name": "transfer",
      "outputs": [
        {
          "internalType": "bool",
          "name": "",
          "type": "bool"
        }
      ],
      "stateMutability": "nonpayable",
      "type": "function"
    },
    {
      "inputs": [
        {
          "internalType": "address",
          "name": "from",
          "type": "address"
        },
        {
          "internalType": "address",
          "name": "to",
          "type": "address"
        },
        {
          "internalType": "uint256",
          "name": "amount",
          "type": "uint256"
        }
      ],
      "name": "transferFrom",
      "outputs": [
        {
          "internalType": "bool",
          "name": "",
          "type": "bool"
        }
      ],
      "stateMutability": "nonpayable",
      "type": "function"
    }
  ],
  "bytecode": "0x60806040523480156200001157600080fd5b506040516200387a3803806200387a8339818101604052810190620000379190620005ee565b6040518060400160405280600481526020017f476f6c64000000000000000000000000000000000000000000000000000000008152506040518060400160405280600381526020017f474c4400000000000000000000000000000000000000000000000000000000008152508160059080519060200190620000bb92919062000527565b508060069080519060200190620000d492919062000527565b505050620000fb6000801b620000ef6200012360201b60201c565b6200012b60201b60201c565b6200011c6200010f6200012360201b60201c565b826200017360201b60201c565b50620007e0565b600033905090565b620001428282620002ed60201b62000db81760201c565b6200016e8160016000858152602001908152602001600020620003de60201b62000e981790919060201c565b505050565b600073ffffffffffffffffffffffffffffffffffffffff168273ffffffffffffffffffffffffffffffffffffffff161415620001e6576040517f08c379a0000000000000000000000000000000000000000000000000000000008152600401620001dd9062000652565b60405180910390fd5b620001fa600083836200041660201b60201c565b80600460008282546200020e9190620006a2565b9250508190555080600260008473ffffffffffffffffffffffffffffffffffffffff1673ffffffffffffffffffffffffffffffffffffffff1681526020019081526020016000206000828254620002669190620006a2565b925050819055508173ffffffffffffffffffffffffffffffffffffffff16600073ffffffffffffffffffffffffffffffffffffffff167fddf252ad1be2c89b69c2b068fc378daa952ba7f163c4a11628f55a4df523b3ef83604051620002cd919062000674565b60405180910390a3620002e9600083836200041b60201b60201c565b5050565b620002ff82826200042060201b60201c565b620003da57600160008084815260200190815260200160002060000160008373ffffffffffffffffffffffffffffffffffffffff1673ffffffffffffffffffffffffffffffffffffffff16815260200190815260200160002060006101000a81548160ff0219169083151502179055506200037f6200012360201b60201c565b73ffffffffffffffffffffffffffffffffffffffff168173ffffffffffffffffffffffffffffffffffffffff16837f2f8788117e7eff1d82e926ec794901d17c78024a50270940304540a733656f0d60405160405180910390a45b5050565b60006200040e836000018373ffffffffffffffffffffffffffffffffffffffff1660001b6200048a60201b60201c565b905092915050565b505050565b505050565b600080600084815260200190815260200160002060000160008373ffffffffffffffffffffffffffffffffffffffff1673ffffffffffffffffffffffffffffffffffffffff16815260200190815260200160002060009054906101000a900460ff16905092915050565b60006200049e83836200050460201b60201c565b620004f9578260000182908060018154018082558091505060019003906000526020600020016000909190919091505582600001805490508360010160008481526020019081526020016000208190555060019050620004fe565b600090505b92915050565b600080836001016000848152602001908152602001600020541415905092915050565b828054620005359062000709565b90600052602060002090601f016020900481019282620005595760008555620005a5565b82601f106200057457805160ff1916838001178555620005a5565b82800160010185558215620005a5579182015b82811115620005a457825182559160200191906001019062000587565b5b509050620005b49190620005b8565b5090565b5b80821115620005d3576000816000905550600101620005b9565b5090565b600081519050620005e881620007c6565b92915050565b6000602082840312156200060157600080fd5b60006200061184828501620005d7565b91505092915050565b600062000629601f8362000691565b915062000636826200079d565b602082019050919050565b6200064c81620006ff565b82525050565b600060208201905081810360008301526200066d816200061a565b9050919050565b60006020820190506200068b600083018462000641565b92915050565b600082825260208201905092915050565b6000620006af82620006ff565b9150620006bc83620006ff565b9250827fffffffffffffffffffffffffffffffffffffffffffffffffffffffffffffffff03821115620006f457620006f36200073f565b5b828201905092915050565b6000819050919050565b600060028204905060018216806200072257607f821691505b602082108114156200073957620007386200076e565b5b50919050565b7f4e487b7100000000000000000000000000000000000000000000000000000000600052601160045260246000fd5b7f4e487b7100000000000000000000000000000000000000000000000000000000600052602260045260246000fd5b7f45524332303a206d696e7420746f20746865207a65726f206164647265737300600082015250565b620007d181620006ff565b8114620007dd57600080fd5b50565b61308a80620007f06000396000f3fe608060405234801561001057600080fd5b506004361061018e5760003560e01c806379cc6790116100de578063a9059cbb11610097578063cf456ae711610071578063cf456ae7146104f5578063d539139314610511578063d547741f1461052f578063dd62ed3e1461054b5761018e565b8063a9059cbb14610465578063aa271e1a14610495578063ca15c873146104c55761018e565b806379cc67901461037d5780639010d07c1461039957806391d14854146103c957806395d89b41146103f9578063a217fddf14610417578063a457c2d7146104355761018e565b80632f2ff15d1161014b578063395093511161012557806339509351146102e557806340c10f191461031557806342966c681461033157806370a082311461034d5761018e565b80632f2ff15d1461028f578063313ce567146102ab57806336568abe146102c95761018e565b806301ffc9a71461019357806306fdde03146101c3578063095ea7b3146101e157806318160ddd1461021157806323b872dd1461022f578063248a9ca31461025f575b600080fd5b6101ad60048036038101906101a891906121d7565b61057b565b6040516101ba91906125cc565b60405180910390f35b6101cb6105f5565b6040516101d89190612602565b60405180910390f35b6101fb60048036038101906101f691906120fa565b610687565b60405161020891906125cc565b60405180910390f35b6102196106aa565b6040516102269190612844565b60405180910390f35b6102496004803603810190610244919061206f565b6106b4565b60405161025691906125cc565b60405180910390f35b61027960048036038101906102749190612136565b6106e3565b60405161028691906125e7565b60405180910390f35b6102a960048036038101906102a4919061215f565b610702565b005b6102b3610723565b6040516102c0919061285f565b60405180910390f35b6102e360048036038101906102de919061215f565b61072c565b005b6102ff60048036038101906102fa91906120fa565b6107af565b60405161030c91906125cc565b60405180910390f35b61032f600480360381019061032a91906120fa565b6107e6565b005b61034b60048036038101906103469190612200565b610864565b005b6103676004803603810190610362919061200a565b610878565b6040516103749190612844565b60405180910390f35b610397600480360381019061039291906120fa565b6108c1565b005b6103b360048036038101906103ae919061219b565b61093f565b6040516103c091906125b1565b60405180910390f35b6103e360048036038101906103de919061215f565b61096e565b6040516103f091906125cc565b60405180910390f35b6104016109d8565b60405161040e9190612602565b60405180910390f35b61041f610a6a565b60405161042c91906125e7565b60405180910390f35b61044f600480360381019061044a91906120fa565b610a71565b60405161045c91906125cc565b60405180910390f35b61047f600480360381019061047a91906120fa565b610ae8565b60405161048c91906125cc565b60405180910390f35b6104af60048036038101906104aa919061200a565b610b0b565b6040516104bc91906125cc565b60405180910390f35b6104df60048036038101906104da9190612136565b610b3e565b6040516104ec9190612844565b60405180910390f35b61050f600480360381019061050a91906120be565b610b62565b005b610519610cec565b60405161052691906125e7565b60405180910390f35b6105496004803603810190610544919061215f565b610d10565b005b61056560048036038101906105609190612033565b610d31565b6040516105729190612844565b60405180910390f35b60007f5a05180f000000000000000000000000000000000000000000000000000000007bffffffffffffffffffffffffffffffffffffffffffffffffffffffff1916827bffffffffffffffffffffffffffffffffffffffffffffffffffffffff191614806105ee57506105ed82610ec8565b5b9050919050565b60606005805461060490612a6d565b80601f016020809104026020016040519081016040528092919081815260200182805461063090612a6d565b801561067d5780601f106106525761010080835404028352916020019161067d565b820191906000526020600020905b81548152906001019060200180831161066057829003601f168201915b5050505050905090565b600080610692610f42565b905061069f818585610f4a565b600191505092915050565b6000600454905090565b6000806106bf610f42565b90506106cc858285611115565b6106d78585856111a1565b60019150509392505050565b6000806000838152602001908152602001600020600101549050919050565b61070b826106e3565b61071481611425565b61071e8383611439565b505050565b60006012905090565b610734610f42565b73ffffffffffffffffffffffffffffffffffffffff168173ffffffffffffffffffffffffffffffffffffffff16146107a1576040517f08c379a000000000000000000000000000000000000000000000000000000000815260040161079890612804565b60405180910390fd5b6107ab828261146d565b5050565b6000806107ba610f42565b90506107db8185856107cc8589610d31565b6107d691906128a1565b610f4a565b600191505092915050565b6108177f9f2df0fed2c77648de5860a4cc508cd0818c85b8b8a1ab4ceeef8d981c8956a6610812610f42565b61096e565b610856576040517f08c379a000000000000000000000000000000000000000000000000000000000815260040161084d90612684565b60405180910390fd5b61086082826114a1565b5050565b61087561086f610f42565b82611602565b50565b6000600260008373ffffffffffffffffffffffffffffffffffffffff1673ffffffffffffffffffffffffffffffffffffffff168152602001908152602001600020549050919050565b6108f27f9f2df0fed2c77648de5860a4cc508cd0818c85b8b8a1ab4ceeef8d981c8956a66108ed610f42565b61096e565b610931576040517f08c379a000000000000000000000000000000000000000000000000000000000815260040161092890612704565b60405180910390fd5b61093b8282611602565b5050565b600061096682600160008681526020019081526020016000206117db90919063ffffffff16565b905092915050565b600080600084815260200190815260200160002060000160008373ffffffffffffffffffffffffffffffffffffffff1673ffffffffffffffffffffffffffffffffffffffff16815260200190815260200160002060009054906101000a900460ff16905092915050565b6060600680546109e790612a6d565b80601f0160208091040260200160405190810160405280929190818152602001828054610a1390612a6d565b8015610a605780601f10610a3557610100808354040283529160200191610a60565b820191906000526020600020905b815481529060010190602001808311610a4357829003601f168201915b5050505050905090565b6000801b81565b600080610a7c610f42565b90506000610a8a8286610d31565b905083811015610acf576040517f08c379a0000000000000000000000000000000000000000000000000000000008152600401610ac6906127e4565b60405180910390fd5b610adc8286868403610f4a565b60019250505092915050565b600080610af3610f42565b9050610b008185856111a1565b600191505092915050565b6000610b377f9f2df0fed2c77648de5860a4cc508cd0818c85b8b8a1ab4ceeef8d981c8956a68361096e565b9050919050565b6000610b5b600160008481526020019081526020016000206117f5565b9050919050565b610b766000801b610b71610f42565b61096e565b610bb5576040517f08c379a0000000000000000000000000000000000000000000000000000000008152600401610bac90612724565b60405180910390fd5b8015610c5457610be57f9f2df0fed2c77648de5860a4cc508cd0818c85b8b8a1ab4ceeef8d981c8956a68361096e565b15610c25576040517f08c379a0000000000000000000000000000000000000000000000000000000008152600401610c1c90612764565b60405180910390fd5b610c4f7f9f2df0fed2c77648de5860a4cc508cd0818c85b8b8a1ab4ceeef8d981c8956a683611439565b610ce8565b610c7e7f9f2df0fed2c77648de5860a4cc508cd0818c85b8b8a1ab4ceeef8d981c8956a68361096e565b610cbd576040517f08c379a0000000000000000000000000000000000000000000000000000000008152600401610cb490612744565b60405180910390fd5b610ce77f9f2df0fed2c77648de5860a4cc508cd0818c85b8b8a1ab4ceeef8d981c8956a68361146d565b5b5050565b7f9f2df0fed2c77648de5860a4cc508cd0818c85b8b8a1ab4ceeef8d981c8956a681565b610d19826106e3565b610d2281611425565b610d2c838361146d565b505050565b6000600360008473ffffffffffffffffffffffffffffffffffffffff1673ffffffffffffffffffffffffffffffffffffffff16815260200190815260200160002060008373ffffffffffffffffffffffffffffffffffffffff1673ffffffffffffffffffffffffffffffffffffffff16815260200190815260200160002054905092915050565b610dc2828261096e565b610e9457600160008084815260200190815260200160002060000160008373ffffffffffffffffffffffffffffffffffffffff1673ffffffffffffffffffffffffffffffffffffffff16815260200190815260200160002060006101000a81548160ff021916908315150217905550610e39610f42565b73ffffffffffffffffffffffffffffffffffffffff168173ffffffffffffffffffffffffffffffffffffffff16837f2f8788117e7eff1d82e926ec794901d17c78024a50270940304540a733656f0d60405160405180910390a45b5050565b6000610ec0836000018373ffffffffffffffffffffffffffffffffffffffff1660001b61180a565b905092915050565b60007f7965db0b000000000000000000000000000000000000000000000000000000007bffffffffffffffffffffffffffffffffffffffffffffffffffffffff1916827bffffffffffffffffffffffffffffffffffffffffffffffffffffffff19161480610f3b5750610f3a8261187a565b5b9050919050565b600033905090565b600073ffffffffffffffffffffffffffffffffffffffff168373ffffffffffffffffffffffffffffffffffffffff161415610fba576040517f08c379a0000000000000000000000000000000000000000000000000000000008152600401610fb1906127c4565b60405180910390fd5b600073ffffffffffffffffffffffffffffffffffffffff168273ffffffffffffffffffffffffffffffffffffffff16141561102a576040517f08c379a0000000000000000000000000000000000000000000000000000000008152600401611021906126a4565b60405180910390fd5b80600360008573ffffffffffffffffffffffffffffffffffffffff1673ffffffffffffffffffffffffffffffffffffffff16815260200190815260200160002060008473ffffffffffffffffffffffffffffffffffffffff1673ffffffffffffffffffffffffffffffffffffffff168152602001908152602001600020819055508173ffffffffffffffffffffffffffffffffffffffff168373ffffffffffffffffffffffffffffffffffffffff167f8c5be1e5ebec7d5bd14f71427d1e84f3dd0314c0f7b2291e5b200ac8c7c3b925836040516111089190612844565b60405180910390a3505050565b60006111218484610d31565b90507fffffffffffffffffffffffffffffffffffffffffffffffffffffffffffffffff811461119b578181101561118d576040517f08c379a0000000000000000000000000000000000000000000000000000000008152600401611184906126c4565b60405180910390fd5b61119a8484848403610f4a565b5b50505050565b600073ffffffffffffffffffffffffffffffffffffffff168373ffffffffffffffffffffffffffffffffffffffff161415611211576040517f08c379a0000000000000000000000000000000000000000000000000000000008152600401611208906127a4565b60405180910390fd5b600073ffffffffffffffffffffffffffffffffffffffff168273ffffffffffffffffffffffffffffffffffffffff161415611281576040517f08c379a000000000000000000000000000000000000000000000000000000000815260040161127890612644565b60405180910390fd5b61128c8383836118e4565b6000600260008573ffffffffffffffffffffffffffffffffffffffff1673ffffffffffffffffffffffffffffffffffffffff16815260200190815260200160002054905081811015611313576040517f08c379a000000000000000000000000000000000000000000000000000000000815260040161130a906126e4565b60405180910390fd5b818103600260008673ffffffffffffffffffffffffffffffffffffffff1673ffffffffffffffffffffffffffffffffffffffff1681526020019081526020016000208190555081600260008573ffffffffffffffffffffffffffffffffffffffff1673ffffffffffffffffffffffffffffffffffffffff16815260200190815260200160002060008282546113a891906128a1565b925050819055508273ffffffffffffffffffffffffffffffffffffffff168473ffffffffffffffffffffffffffffffffffffffff167fddf252ad1be2c89b69c2b068fc378daa952ba7f163c4a11628f55a4df523b3ef8460405161140c9190612844565b60405180910390a361141f8484846118e9565b50505050565b61143681611431610f42565b6118ee565b50565b6114438282610db8565b6114688160016000858152602001908152602001600020610e9890919063ffffffff16565b505050565b611477828261198b565b61149c8160016000858152602001908152602001600020611a6c90919063ffffffff16565b505050565b600073ffffffffffffffffffffffffffffffffffffffff168273ffffffffffffffffffffffffffffffffffffffff161415611511576040517f08c379a000000000000000000000000000000000000000000000000000000000815260040161150890612824565b60405180910390fd5b61151d600083836118e4565b806004600082825461152f91906128a1565b9250508190555080600260008473ffffffffffffffffffffffffffffffffffffffff1673ffffffffffffffffffffffffffffffffffffffff168152602001908152602001600020600082825461158591906128a1565b925050819055508173ffffffffffffffffffffffffffffffffffffffff16600073ffffffffffffffffffffffffffffffffffffffff167fddf252ad1be2c89b69c2b068fc378daa952ba7f163c4a11628f55a4df523b3ef836040516115ea9190612844565b60405180910390a36115fe600083836118e9565b5050565b600073ffffffffffffffffffffffffffffffffffffffff168273ffffffffffffffffffffffffffffffffffffffff161415611672576040517f08c379a000000000000000000000000000000000000000000000000000000000815260040161166990612784565b60405180910390fd5b61167e826000836118e4565b6000600260008473ffffffffffffffffffffffffffffffffffffffff1673ffffffffffffffffffffffffffffffffffffffff16815260200190815260200160002054905081811015611705576040517f08c379a00000000000000000000000000000000000000000000000000000000081526004016116fc90612664565b60405180910390fd5b818103600260008573ffffffffffffffffffffffffffffffffffffffff1673ffffffffffffffffffffffffffffffffffffffff16815260200190815260200160002081905550816004600082825461175d9190612951565b92505081905550600073ffffffffffffffffffffffffffffffffffffffff168373ffffffffffffffffffffffffffffffffffffffff167fddf252ad1be2c89b69c2b068fc378daa952ba7f163c4a11628f55a4df523b3ef846040516117c29190612844565b60405180910390a36117d6836000846118e9565b505050565b60006117ea8360000183611a9c565b60001c905092915050565b600061180382600001611aed565b9050919050565b60006118168383611afe565b61186f578260000182908060018154018082558091505060019003906000526020600020016000909190919091505582600001805490508360010160008481526020019081526020016000208190555060019050611874565b600090505b92915050565b60007f01ffc9a7000000000000000000000000000000000000000000000000000000007bffffffffffffffffffffffffffffffffffffffffffffffffffffffff1916827bffffffffffffffffffffffffffffffffffffffffffffffffffffffff1916149050919050565b505050565b505050565b6118f8828261096e565b6119875761191d8173ffffffffffffffffffffffffffffffffffffffff166014611b21565b61192b8360001c6020611b21565b60405160200161193c929190612577565b6040516020818303038152906040526040517f08c379a000000000000000000000000000000000000000000000000000000000815260040161197e9190612602565b60405180910390fd5b5050565b611995828261096e565b15611a6857600080600084815260200190815260200160002060000160008373ffffffffffffffffffffffffffffffffffffffff1673ffffffffffffffffffffffffffffffffffffffff16815260200190815260200160002060006101000a81548160ff021916908315150217905550611a0d610f42565b73ffffffffffffffffffffffffffffffffffffffff168173ffffffffffffffffffffffffffffffffffffffff16837ff6391f5c32d9c69d2a47ea670b442974b53935d1edc7fd64eb21e047a839171b60405160405180910390a45b5050565b6000611a94836000018373ffffffffffffffffffffffffffffffffffffffff1660001b611e1b565b905092915050565b6000826000018281548110611ada577f4e487b7100000000000000000000000000000000000000000000000000000000600052603260045260246000fd5b9060005260206000200154905092915050565b600081600001805490509050919050565b600080836001016000848152602001908152602001600020541415905092915050565b606060006002836002611b3491906128f7565b611b3e91906128a1565b67ffffffffffffffff811115611b7d577f4e487b7100000000000000000000000000000000000000000000000000000000600052604160045260246000fd5b6040519080825280601f01601f191660200182016040528015611baf5781602001600182028036833780820191505090505b5090507f300000000000000000000000000000000000000000000000000000000000000081600081518110611c0d577f4e487b7100000000000000000000000000000000000000000000000000000000600052603260045260246000fd5b60200101907effffffffffffffffffffffffffffffffffffffffffffffffffffffffffffff1916908160001a9053507f780000000000000000000000000000000000000000000000000000000000000081600181518110611c97577f4e487b7100000000000000000000000000000000000000000000000000000000600052603260045260246000fd5b60200101907effffffffffffffffffffffffffffffffffffffffffffffffffffffffffffff1916908160001a90535060006001846002611cd791906128f7565b611ce191906128a1565b90505b6001811115611dcd577f3031323334353637383961626364656600000000000000000000000000000000600f861660108110611d49577f4e487b7100000000000000000000000000000000000000000000000000000000600052603260045260246000fd5b1a60f81b828281518110611d86577f4e487b7100000000000000000000000000000000000000000000000000000000600052603260045260246000fd5b60200101907effffffffffffffffffffffffffffffffffffffffffffffffffffffffffffff1916908160001a905350600485901c945080611dc690612a43565b9050611ce4565b5060008414611e11576040517f08c379a0000000000000000000000000000000000000000000000000000000008152600401611e0890612624565b60405180910390fd5b8091505092915050565b60008083600101600084815260200190815260200160002054905060008114611f95576000600182611e4d9190612951565b9050600060018660000180549050611e659190612951565b9050818114611f20576000866000018281548110611eac577f4e487b7100000000000000000000000000000000000000000000000000000000600052603260045260246000fd5b9060005260206000200154905080876000018481548110611ef6577f4e487b7100000000000000000000000000000000000000000000000000000000600052603260045260246000fd5b90600052602060002001819055508387600101600083815260200190815260200160002081905550505b85600001805480611f5a577f4e487b7100000000000000000000000000000000000000000000000000000000600052603160045260246000fd5b600190038181906000526020600020016000905590558560010160008681526020019081526020016000206000905560019350505050611f9b565b60009150505b92915050565b600081359050611fb081612fe1565b92915050565b600081359050611fc581612ff8565b92915050565b600081359050611fda8161300f565b92915050565b600081359050611fef81613026565b92915050565b6000813590506120048161303d565b92915050565b60006020828403121561201c57600080fd5b600061202a84828501611fa1565b91505092915050565b6000806040838503121561204657600080fd5b600061205485828601611fa1565b925050602061206585828601611fa1565b9150509250929050565b60008060006060848603121561208457600080fd5b600061209286828701611fa1565b93505060206120a386828701611fa1565b92505060406120b486828701611ff5565b9150509250925092565b600080604083850312156120d157600080fd5b60006120df85828601611fa1565b92505060206120f085828601611fb6565b9150509250929050565b6000806040838503121561210d57600080fd5b600061211b85828601611fa1565b925050602061212c85828601611ff5565b9150509250929050565b60006020828403121561214857600080fd5b600061215684828501611fcb565b91505092915050565b6000806040838503121561217257600080fd5b600061218085828601611fcb565b925050602061219185828601611fa1565b9150509250929050565b600080604083850312156121ae57600080fd5b60006121bc85828601611fcb565b92505060206121cd85828601611ff5565b9150509250929050565b6000602082840312156121e957600080fd5b60006121f784828501611fe0565b91505092915050565b60006020828403121561221257600080fd5b600061222084828501611ff5565b91505092915050565b61223281612985565b82525050565b61224181612997565b82525050565b612250816129a3565b82525050565b60006122618261287a565b61226b8185612885565b935061227b818560208601612a10565b61228481612afd565b840191505092915050565b600061229a8261287a565b6122a48185612896565b93506122b4818560208601612a10565b80840191505092915050565b60006122cd602083612885565b91506122d882612b0e565b602082019050919050565b60006122f0602383612885565b91506122fb82612b37565b604082019050919050565b6000612313602283612885565b915061231e82612b86565b604082019050919050565b6000612336602983612885565b915061234182612bd5565b604082019050919050565b6000612359602283612885565b915061236482612c24565b604082019050919050565b600061237c601d83612885565b915061238782612c73565b602082019050919050565b600061239f602683612885565b91506123aa82612c9c565b604082019050919050565b60006123c2602983612885565b91506123cd82612ceb565b604082019050919050565b60006123e5602d83612885565b91506123f082612d3a565b604082019050919050565b6000612408601c83612885565b915061241382612d89565b602082019050919050565b600061242b602083612885565b915061243682612db2565b602082019050919050565b600061244e602183612885565b915061245982612ddb565b604082019050919050565b6000612471602583612885565b915061247c82612e2a565b604082019050919050565b6000612494602483612885565b915061249f82612e79565b604082019050919050565b60006124b7601783612896565b91506124c282612ec8565b601782019050919050565b60006124da602583612885565b91506124e582612ef1565b604082019050919050565b60006124fd601183612896565b915061250882612f40565b601182019050919050565b6000612520602f83612885565b915061252b82612f69565b604082019050919050565b6000612543601f83612885565b915061254e82612fb8565b602082019050919050565b612562816129f9565b82525050565b61257181612a03565b82525050565b6000612582826124aa565b915061258e828561228f565b9150612599826124f0565b91506125a5828461228f565b91508190509392505050565b60006020820190506125c66000830184612229565b92915050565b60006020820190506125e16000830184612238565b92915050565b60006020820190506125fc6000830184612247565b92915050565b6000602082019050818103600083015261261c8184612256565b905092915050565b6000602082019050818103600083015261263d816122c0565b9050919050565b6000602082019050818103600083015261265d816122e3565b9050919050565b6000602082019050818103600083015261267d81612306565b9050919050565b6000602082019050818103600083015261269d81612329565b9050919050565b600060208201905081810360008301526126bd8161234c565b9050919050565b600060208201905081810360008301526126dd8161236f565b9050919050565b600060208201905081810360008301526126fd81612392565b9050919050565b6000602082019050818103600083015261271d816123b5565b9050919050565b6000602082019050818103600083015261273d816123d8565b9050919050565b6000602082019050818103600083015261275d816123fb565b9050919050565b6000602082019050818103600083015261277d8161241e565b9050919050565b6000602082019050818103600083015261279d81612441565b9050919050565b600060208201905081810360008301526127bd81612464565b9050919050565b600060208201905081810360008301526127dd81612487565b9050919050565b600060208201905081810360008301526127fd816124cd565b9050919050565b6000602082019050818103600083015261281d81612513565b9050919050565b6000602082019050818103600083015261283d81612536565b9050919050565b60006020820190506128596000830184612559565b92915050565b60006020820190506128746000830184612568565b92915050565b600081519050919050565b600082825260208201905092915050565b600081905092915050565b60006128ac826129f9565b91506128b7836129f9565b9250827fffffffffffffffffffffffffffffffffffffffffffffffffffffffffffffffff038211156128ec576128eb612a9f565b5b828201905092915050565b6000612902826129f9565b915061290d836129f9565b9250817fffffffffffffffffffffffffffffffffffffffffffffffffffffffffffffffff048311821515161561294657612945612a9f565b5b828202905092915050565b600061295c826129f9565b9150612967836129f9565b92508282101561297a57612979612a9f565b5b828203905092915050565b6000612990826129d9565b9050919050565b60008115159050919050565b6000819050919050565b60007fffffffff0000000000000000000000000000000000000000000000000000000082169050919050565b600073ffffffffffffffffffffffffffffffffffffffff82169050919050565b6000819050919050565b600060ff82169050919050565b60005b83811015612a2e578082015181840152602081019050612a13565b83811115612a3d576000848401525b50505050565b6000612a4e826129f9565b91506000821415612a6257612a61612a9f565b5b600182039050919050565b60006002820490506001821680612a8557607f821691505b60208210811415612a9957612a98612ace565b5b50919050565b7f4e487b7100000000000000000000000000000000000000000000000000000000600052601160045260246000fd5b7f4e487b7100000000000000000000000000000000000000000000000000000000600052602260045260246000fd5b6000601f19601f8301169050919050565b7f537472696e67733a20686578206c656e67746820696e73756666696369656e74600082015250565b7f45524332303a207472616e7366657220746f20746865207a65726f206164647260008201527f6573730000000000000000000000000000000000000000000000000000000000602082015250565b7f45524332303a206275726e20616d6f756e7420657863656564732062616c616e60008201527f6365000000000000000000000000000000000000000000000000000000000000602082015250565b7f4552433230546f6b656e3a206d7573742068617665206d696e74657220726f6c60008201527f6520746f206d696e740000000000000000000000000000000000000000000000602082015250565b7f45524332303a20617070726f766520746f20746865207a65726f20616464726560008201527f7373000000000000000000000000000000000000000000000000000000000000602082015250565b7f45524332303a20696e73756666696369656e7420616c6c6f77616e6365000000600082015250565b7f45524332303a207472616e7366657220616d6f756e742065786365656473206260008201527f616c616e63650000000000000000000000000000000000000000000000000000602082015250565b7f4552433230546f6b656e3a206d7573742068617665206d696e74657220726f6c60008201527f6520746f206275726e0000000000000000000000000000000000000000000000602082015250565b7f4552433230546f6b656e3a206d75737420686176652061646d696e20726f6c6560008201527f20746f207365744d696e74657200000000000000000000000000000000000000602082015250565b7f4552433230546f6b656e3a206e6f7420746f6b656e206d696e74657200000000600082015250565b7f4552433230546f6b656e3a20616c726561647920746f6b656e206d696e746572600082015250565b7f45524332303a206275726e2066726f6d20746865207a65726f2061646472657360008201527f7300000000000000000000000000000000000000000000000000000000000000602082015250565b7f45524332303a207472616e736665722066726f6d20746865207a65726f20616460008201527f6472657373000000000000000000000000000000000000000000000000000000602082015250565b7f45524332303a20617070726f76652066726f6d20746865207a65726f2061646460008201527f7265737300000000000000000000000000000000000000000000000000000000602082015250565b7f416363657373436f6e74726f6c3a206163636f756e7420000000000000000000600082015250565b7f45524332303a2064656372656173656420616c6c6f77616e63652062656c6f7760008201527f207a65726f000000000000000000000000000000000000000000000000000000602082015250565b7f206973206d697373696e6720726f6c6520000000000000000000000000000000600082015250565b7f416363657373436f6e74726f6c3a2063616e206f6e6c792072656e6f756e636560008201527f20726f6c657320666f722073656c660000000000000000000000000000000000602082015250565b7f45524332303a206d696e7420746f20746865207a65726f206164647265737300600082015250565b612fea81612985565b8114612ff557600080fd5b50565b61300181612997565b811461300c57600080fd5b50565b613018816129a3565b811461302357600080fd5b50565b61302f816129ad565b811461303a57600080fd5b50565b613046816129f9565b811461305157600080fd5b5056fea264697066735822122011c0ef27992938ad06e87a31815b436e72055b03879a28d0afc0f0bad01ae7cc64736f6c63430008040033",
  "linkReferences": {},
  "deployedLinkReferences": {}
}