{
  "_format": "hh-sol-artifact-1",
  "contractName": "RewardPool",
  "sourceName": "contracts/RewardPool.sol",
  "abi": [
    {
      "inputs": [
        {
          "internalType": "address",
          "name": "_token",
          "type": "address"
        }
      ],
      "stateMutability": "nonpayable",
      "type": "constructor"
    },
    {
      "anonymous": false,
      "inputs": [
        {
          "indexed": true,
          "internalType": "address",
          "name": "user",
          "type": "address"
        },
        {
          "indexed": true,
          "internalType": "uint256",
          "name": "amount",
          "type": "uint256"
        }
      ],
      "name": "Claim",
      "type": "event"
    },
    {
      "anonymous": false,
      "inputs": [
        {
          "indexed": true,
          "internalType": "bool",
          "name": "isClaimable",
          "type": "bool"
        }
      ],
      "name": "Claimable",
      "type": "event"
    },
    {
      "anonymous": false,
      "inputs": [
        {
          "indexed": true,
          "internalType": "address",
          "name": "previousOwner",
          "type": "address"
        },
        {
          "indexed": true,
          "internalType": "address",
          "name": "newOwner",
          "type": "address"
        }
      ],
      "name": "OwnershipTransferred",
      "type": "event"
    },
    {
      "anonymous": false,
      "inputs": [
        {
          "indexed": true,
          "internalType": "address",
          "name": "owner",
          "type": "address"
        },
        {
          "indexed": true,
          "internalType": "uint256",
          "name": "totalReward",
          "type": "uint256"
        }
      ],
      "name": "Revoke",
      "type": "event"
    },
    {
      "anonymous": false,
      "inputs": [
        {
          "indexed": true,
          "internalType": "uint256",
          "name": "total",
          "type": "uint256"
        }
      ],
      "name": "RewardAdded",
      "type": "event"
    },
    {
      "stateMutability": "payable",
      "type": "fallback"
    },
    {
      "inputs": [
        {
          "internalType": "uint256",
          "name": "_total",
          "type": "uint256"
        },
        {
          "components": [
            {
              "internalType": "address",
              "name": "user",
              "type": "address"
            },
            {
              "internalType": "uint256",
              "name": "amount",
              "type": "uint256"
            }
          ],
          "internalType": "struct UserReward[]",
          "name": "userRewards",
          "type": "tuple[]"
        }
      ],
      "name": "addReward",
      "outputs": [],
      "stateMutability": "nonpayable",
      "type": "function"
    },
    {
      "inputs": [],
      "name": "claim",
      "outputs": [],
      "stateMutability": "nonpayable",
      "type": "function"
    },
    {
      "inputs": [],
      "name": "isClaimable",
      "outputs": [
        {
          "internalType": "bool",
          "name": "",
          "type": "bool"
        }
      ],
      "stateMutability": "view",
      "type": "function"
    },
    {
      "inputs": [],
      "name": "owner",
      "outputs": [
        {
          "internalType": "address",
          "name": "",
          "type": "address"
        }
      ],
      "stateMutability": "view",
      "type": "function"
    },
    {
      "inputs": [],
      "name": "revokeTotalReward",
      "outputs": [],
      "stateMutability": "nonpayable",
      "type": "function"
    },
    {
      "inputs": [
        {
          "internalType": "address",
          "name": "",
          "type": "address"
        }
      ],
      "name": "rewards",
      "outputs": [
        {
          "internalType": "uint256",
          "name": "",
          "type": "uint256"
        }
      ],
      "stateMutability": "view",
      "type": "function"
    },
    {
      "inputs": [
        {
          "internalType": "bool",
          "name": "_isClaimable",
          "type": "bool"
        }
      ],
      "name": "setClaimable",
      "outputs": [],
      "stateMutability": "nonpayable",
      "type": "function"
    },
    {
      "inputs": [],
      "name": "token",
      "outputs": [
        {
          "internalType": "address",
          "name": "",
          "type": "address"
        }
      ],
      "stateMutability": "view",
      "type": "function"
    },
    {
      "inputs": [],
      "name": "totalReward",
      "outputs": [
        {
          "internalType": "uint256",
          "name": "",
          "type": "uint256"
        }
      ],
      "stateMutability": "view",
      "type": "function"
    },
    {
      "inputs": [
        {
          "internalType": "address",
          "name": "newOwner",
          "type": "address"
        }
      ],
      "name": "transferOwnership",
      "outputs": [],
      "stateMutability": "nonpayable",
      "type": "function"
    },
    {
      "stateMutability": "payable",
      "type": "receive"
    }
  ],
  "bytecode": "0x60a06040523480156200001157600080fd5b50604051620015d1380380620015d18339818101604052810190620000379190620001ea565b620000576200004b620000b460201b60201c565b620000bc60201b60201c565b600180819055508073ffffffffffffffffffffffffffffffffffffffff1660808173ffffffffffffffffffffffffffffffffffffffff16815250506001600460006101000a81548160ff021916908315150217905550506200021c565b600033905090565b60008060009054906101000a900473ffffffffffffffffffffffffffffffffffffffff169050816000806101000a81548173ffffffffffffffffffffffffffffffffffffffff021916908373ffffffffffffffffffffffffffffffffffffffff1602179055508173ffffffffffffffffffffffffffffffffffffffff168173ffffffffffffffffffffffffffffffffffffffff167f8be0079c531659141344cd1fd0a4f28419497f9722a3daafe3b4186f6b6457e060405160405180910390a35050565b600080fd5b600073ffffffffffffffffffffffffffffffffffffffff82169050919050565b6000620001b28262000185565b9050919050565b620001c481620001a5565b8114620001d057600080fd5b50565b600081519050620001e481620001b9565b92915050565b60006020828403121562000203576200020262000180565b5b60006200021384828501620001d3565b91505092915050565b6080516113846200024d60003960008181610437015281816105b80152818161076e01526109b801526113846000f3fe6080604052600436106100955760003560e01c8063868da52711610059578063868da527146101775780638da5cb5b1461018e578063aaac8522146101b9578063f2fde38b146101e2578063fc0c546a1461020b5761009f565b80630700037d146100a4578063378c93ad146100e15780634e71d92d1461010a57806374478bb314610121578063750142e61461014c5761009f565b3661009f57600080fd5b600080fd5b3480156100b057600080fd5b506100cb60048036038101906100c69190610be4565b610236565b6040516100d89190610c2a565b60405180910390f35b3480156100ed57600080fd5b5061010860048036038101906101039190610c7d565b61024e565b005b34801561011657600080fd5b5061011f610306565b005b34801561012d57600080fd5b50610136610577565b6040516101439190610cb9565b60405180910390f35b34801561015857600080fd5b5061016161058a565b60405161016e9190610c2a565b60405180910390f35b34801561018357600080fd5b5061018c610590565b005b34801561019a57600080fd5b506101a36106a8565b6040516101b09190610ce3565b60405180910390f35b3480156101c557600080fd5b506101e060048036038101906101db9190610d8f565b6106d1565b005b3480156101ee57600080fd5b5061020960048036038101906102049190610be4565b610933565b005b34801561021757600080fd5b506102206109b6565b60405161022d9190610ce3565b60405180910390f35b60036020528060005260406000206000915090505481565b6102566109da565b801515600460009054906101000a900460ff161515036102ab576040517f08c379a00000000000000000000000000000000000000000000000000000000081526004016102a290610e72565b60405180910390fd5b80600460006101000a81548160ff021916908315150217905550600460009054906101000a900460ff1615157fb569b15725ae06c8fcaddadb711d62bb792d00fd5d57fe6929ac3df4d131c70860405160405180910390a250565b61030e610a58565b600460009054906101000a900460ff1661035d576040517f08c379a000000000000000000000000000000000000000000000000000000000815260040161035490610ede565b60405180910390fd5b6000610367610aa7565b90506000600360008373ffffffffffffffffffffffffffffffffffffffff1673ffffffffffffffffffffffffffffffffffffffff168152602001908152602001600020549050600081116103f0576040517f08c379a00000000000000000000000000000000000000000000000000000000081526004016103e790610f4a565b60405180910390fd5b806002541015610435576040517f08c379a000000000000000000000000000000000000000000000000000000000815260040161042c90610fb6565b60405180910390fd5b7f000000000000000000000000000000000000000000000000000000000000000073ffffffffffffffffffffffffffffffffffffffff1663a9059cbb83836040518363ffffffff1660e01b8152600401610490929190610fd6565b6020604051808303816000875af11580156104af573d6000803e3d6000fd5b505050506040513d601f19601f820116820180604052508101906104d39190611014565b5080600260008282540392505081905550600360008373ffffffffffffffffffffffffffffffffffffffff1673ffffffffffffffffffffffffffffffffffffffff16815260200190815260200160002060009055808273ffffffffffffffffffffffffffffffffffffffff167f47cee97cb7acd717b3c0aa1435d004cd5b3c8c57d70dbceb4e4458bbd60e39d460405160405180910390a35050610575610aaf565b565b600460009054906101000a900460ff1681565b60025481565b6105986109da565b6105a0610a58565b6105aa600061024e565b60006105b46106a8565b90507f000000000000000000000000000000000000000000000000000000000000000073ffffffffffffffffffffffffffffffffffffffff1663a9059cbb826002546040518363ffffffff1660e01b8152600401610613929190610fd6565b6020604051808303816000875af1158015610632573d6000803e3d6000fd5b505050506040513d601f19601f820116820180604052508101906106569190611014565b506002548173ffffffffffffffffffffffffffffffffffffffff167fec9ab91322523c899ede7830ec9bfc992b5981cdcc27b91162fb23de5791117b60405160405180910390a3506106a6610aaf565b565b60008060009054906101000a900473ffffffffffffffffffffffffffffffffffffffff16905090565b6106d96109da565b600080600090505b83839050811015610729578383828181106106ff576106fe611041565b5b9050604002016020013582610714919061109f565b91508080610721906110d3565b9150506106e1565b5083811461076c576040517f08c379a00000000000000000000000000000000000000000000000000000000081526004016107639061118d565b60405180910390fd5b7f000000000000000000000000000000000000000000000000000000000000000073ffffffffffffffffffffffffffffffffffffffff166323b872dd6107b0610aa7565b30846040518463ffffffff1660e01b81526004016107d0939291906111ad565b6020604051808303816000875af11580156107ef573d6000803e3d6000fd5b505050506040513d601f19601f820116820180604052508101906108139190611014565b5060005b838390508110156108e657600084848381811061083757610836611041565b5b9050604002016020013590506000810361085157506108d3565b806003600087878681811061086957610868611041565b5b90506040020160000160208101906108819190610be4565b73ffffffffffffffffffffffffffffffffffffffff1673ffffffffffffffffffffffffffffffffffffffff16815260200190815260200160002060008282546108ca919061109f565b92505081905550505b80806108de906110d3565b915050610817565b5080600260008282546108f9919061109f565b92505081905550807fde88a922e0d3b88b24e9623efeb464919c6bf9f66857a65e2bfcf2ce87a9433d60405160405180910390a250505050565b61093b6109da565b600073ffffffffffffffffffffffffffffffffffffffff168173ffffffffffffffffffffffffffffffffffffffff16036109aa576040517f08c379a00000000000000000000000000000000000000000000000000000000081526004016109a190611256565b60405180910390fd5b6109b381610ab8565b50565b7f000000000000000000000000000000000000000000000000000000000000000081565b6109e2610aa7565b73ffffffffffffffffffffffffffffffffffffffff16610a006106a8565b73ffffffffffffffffffffffffffffffffffffffff1614610a56576040517f08c379a0000000000000000000000000000000000000000000000000000000008152600401610a4d906112c2565b60405180910390fd5b565b600260015403610a9d576040517f08c379a0000000000000000000000000000000000000000000000000000000008152600401610a949061132e565b60405180910390fd5b6002600181905550565b600033905090565b60018081905550565b60008060009054906101000a900473ffffffffffffffffffffffffffffffffffffffff169050816000806101000a81548173ffffffffffffffffffffffffffffffffffffffff021916908373ffffffffffffffffffffffffffffffffffffffff1602179055508173ffffffffffffffffffffffffffffffffffffffff168173ffffffffffffffffffffffffffffffffffffffff167f8be0079c531659141344cd1fd0a4f28419497f9722a3daafe3b4186f6b6457e060405160405180910390a35050565b600080fd5b600080fd5b600073ffffffffffffffffffffffffffffffffffffffff82169050919050565b6000610bb182610b86565b9050919050565b610bc181610ba6565b8114610bcc57600080fd5b50565b600081359050610bde81610bb8565b92915050565b600060208284031215610bfa57610bf9610b7c565b5b6000610c0884828501610bcf565b91505092915050565b6000819050919050565b610c2481610c11565b82525050565b6000602082019050610c3f6000830184610c1b565b92915050565b60008115159050919050565b610c5a81610c45565b8114610c6557600080fd5b50565b600081359050610c7781610c51565b92915050565b600060208284031215610c9357610c92610b7c565b5b6000610ca184828501610c68565b91505092915050565b610cb381610c45565b82525050565b6000602082019050610cce6000830184610caa565b92915050565b610cdd81610ba6565b82525050565b6000602082019050610cf86000830184610cd4565b92915050565b610d0781610c11565b8114610d1257600080fd5b50565b600081359050610d2481610cfe565b92915050565b600080fd5b600080fd5b600080fd5b60008083601f840112610d4f57610d4e610d2a565b5b8235905067ffffffffffffffff811115610d6c57610d6b610d2f565b5b602083019150836040820283011115610d8857610d87610d34565b5b9250929050565b600080600060408486031215610da857610da7610b7c565b5b6000610db686828701610d15565b935050602084013567ffffffffffffffff811115610dd757610dd6610b81565b5b610de386828701610d39565b92509250509250925092565b600082825260208201905092915050565b7f526577617264506f6f6c3a206973436c61696d61626c6520697320616c72656160008201527f6479207365740000000000000000000000000000000000000000000000000000602082015250565b6000610e5c602683610def565b9150610e6782610e00565b604082019050919050565b60006020820190508181036000830152610e8b81610e4f565b9050919050565b7f526577617264506f6f6c3a20706f6f6c20697320756e636c61696d61626c6500600082015250565b6000610ec8601f83610def565b9150610ed382610e92565b602082019050919050565b60006020820190508181036000830152610ef781610ebb565b9050919050565b7f526577617264506f6f6c3a20636c61696d20616d6f756e74206973207a65726f600082015250565b6000610f34602083610def565b9150610f3f82610efe565b602082019050919050565b60006020820190508181036000830152610f6381610f27565b9050919050565b7f526577617264506f6f6c3a20746f74616c526577617264206973206c6f776572600082015250565b6000610fa0602083610def565b9150610fab82610f6a565b602082019050919050565b60006020820190508181036000830152610fcf81610f93565b9050919050565b6000604082019050610feb6000830185610cd4565b610ff86020830184610c1b565b9392505050565b60008151905061100e81610c51565b92915050565b60006020828403121561102a57611029610b7c565b5b600061103884828501610fff565b91505092915050565b7f4e487b7100000000000000000000000000000000000000000000000000000000600052603260045260246000fd5b7f4e487b7100000000000000000000000000000000000000000000000000000000600052601160045260246000fd5b60006110aa82610c11565b91506110b583610c11565b92508282019050808211156110cd576110cc611070565b5b92915050565b60006110de82610c11565b91507fffffffffffffffffffffffffffffffffffffffffffffffffffffffffffffffff82036111105761110f611070565b5b600182019050919050565b7f4e46544661726d3a20696e70757420746f74616c20697320646966666572656e60008201527f742066726f6d2073756d00000000000000000000000000000000000000000000602082015250565b6000611177602a83610def565b91506111828261111b565b604082019050919050565b600060208201905081810360008301526111a68161116a565b9050919050565b60006060820190506111c26000830186610cd4565b6111cf6020830185610cd4565b6111dc6040830184610c1b565b949350505050565b7f4f776e61626c653a206e6577206f776e657220697320746865207a65726f206160008201527f6464726573730000000000000000000000000000000000000000000000000000602082015250565b6000611240602683610def565b915061124b826111e4565b604082019050919050565b6000602082019050818103600083015261126f81611233565b9050919050565b7f4f776e61626c653a2063616c6c6572206973206e6f7420746865206f776e6572600082015250565b60006112ac602083610def565b91506112b782611276565b602082019050919050565b600060208201905081810360008301526112db8161129f565b9050919050565b7f5265656e7472616e637947756172643a207265656e7472616e742063616c6c00600082015250565b6000611318601f83610def565b9150611323826112e2565b602082019050919050565b600060208201905081810360008301526113478161130b565b905091905056fea26469706673582212207f52a80cb4062b5ba35da01d09194693377efbb66e843eeb2f0613709ca3b7ac64736f6c63430008110033",
  "linkReferences": {},
  "deployedLinkReferences": {}
}